:040000008DEF06F08A
:08000800046ED8CF05F0E0CF33
:1000100006F00001E9CF0CF0EACF07F0E1CF08F0DD
:10002000E2CF09F0D9CF0AF0DACF0BF0F3CF12F01C
:10003000F4CF13F0FACF14F000C00EF001C00FF0AF
:1000400002C010F003C011F0F2AA2AEF00F0F2B4DF
:1000500002EF01F00EC000F00FC001F010C002F07E
:1000600011C003F00CC0E9FF07C0EAFF078E08C00B
:10007000E1FF09C0E2FF0AC0D9FF0BC0DAFF12C0DE
:10008000F3FF13C0F4FF14C0FAFF045006C0E0FFF2
:1000900005C0D8FF10008150006E00380F0B016EB4
:1000A00012000F0E9314F009936E8984929400004D
:1000B0008A8093900000EFDF01C04EF08A90939009
:1000C00000008A8093900000E6DF01C04DF08A9026
:1000D00093900F0E9314936E4E38006EF00E001630
:1000E00000504D10016E12004E38F00B006E0F0ED6
:1000F0008A1400108A6E00008A80939000D08A9043
:10010000939012009390939292948A929392C9DF63
:1001100001C04DF001BEFBD74B5202E18A9201D0E3
:100120008A82939200008994929400008A9093901E
:100130004C384D6E0F0E4D164DC04EF0D5DF4C5065
:100140000F0B4D6E4E6ED0DF1200482C01D003D045
:10015000400E496E01D0496A010E475C492649505C
:1001600080094A6E4B6A4C6ECDDF1200EA6A470E78
:10017000E96EEF500EE0010E016E006A002EFED710
:10018000012EFBD74A0E006E002EFED700D0EF2EB8
:10019000F2D712004650070A07E00B0A0AE0060AE7
:1001A00010E0020A14E018D0010E476E486ECDDF51
:1001B00018D04B6A010E4C6EA5DF020E476ED6DFDB
:1001C00010D0010E476E020E486EBFDF0AD04B6A98
:1001D000100E4C6E97DF05D0010E4B6E46C04CF0F2
:1001E00091DF12000900F5520CE0F6CF44F0F7CF92
:1001F00045F0F5CF46F0CEDF44C0F6FF45C0F7FF2F
:10020000F1D7120029A021D0D76A3A0ED66E235218
:100210001BE1140E236E245207E13C0E246E25527E
:1002200002E13C0E256E2506240624520DE12552DE
:100230000BE1809C2990010E476E486E86DF960E7A
:10024000F66E020EF76ECEDF230629A221D0D76A02
:100250003A0ED66E26521BE1140E266E275207E187
:100260003C0E276E285202E13C0E286E2806270617
:1002700027520DE128520BE1809E2992010E476E14
:10028000486E63DFA60EF66E020EF76EABDF260633
:10029000F2942AEF00F02046494E20444520534571
:1002A00053494F4E00002046494E204445205345B7
:1002B00053494F4E00002045584345534F20444575
:1002C0002053414C000045584345534F204445209E
:1002D00053414C00280E2B6E0C0E2C6E010E2D6E11
:1002E000060E2E6E8A9093908A929392899492949D
:1002F0000F0E9314936E939093929294166AF2BE9B
:10030000168EF29E0F0E476E31DF16BEF28E010E74
:100310002A6E2A50030814E3166AF2BE168EF29E65
:10032000030E4E6EE1DE16BEF28E166AF2BE168E19
:10033000F29E050E476E1ADF16BEF28E2A2AE9D704
:10034000166AF2BE168EF29E020E4E6ECDDE16BEFE
:10035000F28E166AF2BE168EF29E050E476E06DF0C
:1003600016BEF28E2A6A2A50030815E3036A2A5041
:100370002B0FE96E000E0320EA6EEFCF2FF0166A06
:10038000F2BE168EF29E4B6A2FC04CF0BBDE16BE3C
:10039000F28E2A2AE8D7C5EF06F08E0E006E2BC02B
:1003A00001F02AC002F0036A015209E102C001F023
:1003B000026A080E005E015202E1006A08D0D8907D
:1003C00001BE04D0023601360006F9D7019E1200A4
:1003D0003750D8B471D0006E3B50D8B46DD00026E1
:1003E00004E3810E002668E204D07F0E005E64E321
:1003F00063E038C03FF03C503F1A388E3C8E3A5094
:100400003E02F4CF41F039503D02F4CF03F0F3CF78
:1004100040F03E02F3504126F4504022000E0322E9
:100420003A503D02F3504126F4504022000E026A39
:100430000322022238503E02F3504026F450032299
:10044000000E022238503D02F3500326F4500222DF
:10045000000E016A01223A503C02F3504026F4504B
:100460000322000E0222012239503C02F3500326DF
:10047000F4500222000E012238503C02F3500226B2
:10048000F4500122002A01BE05D040360336023660
:1004900001360006000E40AE0AD0032A02220122D5
:1004A000015005E1025003E1035001E1002A3FBE83
:1004B000018E3FAE019E04D0006A016A026A036A9F
:1004C00012002E50D8B4A5D03A6E3250D8B4A1D074
:1004D0003A5E05E37F0E3A26D8B09BD006D0810E57
:1004E0003A5ED8A096D0D8B494D03AC000F0016A51
:1004F000026A036A396A2FC038F0388E30C037F08C
:1005000031C036F0190E3A6E3550365E0DE2010EEE
:10051000375E0AE2385E08E2395E06E2392A382A96
:10052000372A3550362628D03450375E12E2010E75
:10053000385E0FE2395E0DE2392A382A3450372608
:100540003550362619E3372A17E1382A15E1392ABA
:1005500013D033508009385E0EE2010E395E0BE293
:10056000392A33508009382634503726E9E3382AAF
:10057000E7E1392AE5D703803A2E01D00BD0D89095
:100580003636373638363936D890033602360136A5
:100590003B36BAD73BA006D0D890013202320332A4
:1005A0003B3202D0000635E03BBE1ED0D890363636
:1005B0003736383639363550365E07E2010E375E4B
:1005C00004E2385E02E2395E1AE33450375E05E237
:1005D000010E385E02E2395E12E333508009385E64
:1005E00003E2010E395E0BE3032A09E1022A07E167
:1005F000012A05E1002A0DE00132023203322FC048
:100600003AF033503A1A3AAE02D0018E06D0019E2B
:1006100004D0006A016A026A036A1200000E016EC9
:10062000C250E30B0110C26E020E006E002EFED708
:1006300000D00000C282C2B2FED7C3CF17F0C4CF31
:1006400018F018C02BF017C02AF0A7DE03C03AF04C
:1006500002C039F001C038F000C037F03E6A3D6A90
:10066000200E3C6E810E3B6EB3DE03C02DF002C047
:100670002CF001C02BF000C02AF003C031F002C002
:1006800030F001C02FF000C02EF0356A346A336AB2
:10069000890E326E16DF03C01EF002C01DF001C0CD
:1006A0001CF000C01BF0040E016EC250E30B0110E1
:1006B000C26E020E006E002EFED700D00000C28275
:1006C000C2B2FED7C3CF19F0C4CF1AF01AC02BF0B4
:1006D00019C02AF062DE03C03AF002C039F001C04E
:1006E00038F000C037F03E6A3D6A200E3C6E810E45
:1006F0003B6E6EDE03C02DF002C02CF001C02BF06B
:1007000000C02AF003C031F002C030F001C02FF069
:1007100000C02EF0356A346A336A890E326ED1DE3B
:1007200003C022F002C021F001C020F000C01FF081
:1007300031EF06F02D50016A2C5C03E22CC000F072
:100740000CD0006A080E2E6E2C3600362D50005C40
:10075000D8B0006E01362E2EF7D7120001502AC0F5
:100760002CF0640E2D6EE6DF00C02AF00150300E32
:1007700007E12BA212D02BB610D02BB8200E03D03D
:100780002B962B982B800126166AF2BE168EF29EAF
:1007900001C046F0FFDC16BEF28E2AC02CF00A0E15
:1007A0002D6EC8DF00C02AF00150300E06E12BB6D6
:1007B0000ED02BA00CD02BB8200E0126166AF2BE4C
:1007C000168EF29E01C046F0E5DC16BEF28E300EAB
:1007D0002A26166AF2BE168EF29E2AC046F0DADC8F
:1007E00016BEF28E12003750B608376E036A38C054
:1007F0003BF0388ED890383239323A3203320232F6
:1008000001320032372EF6D73BAE0BD0001E011E50
:10081000021E031E002AD8B4012AD8B4022AD8B472
:10082000032A81EF04F0D8B203D0EA6A3F0EE96EE2
:10083000006A016A026A036A3F6A406A416A426A60
:100840003E503D103C103B102CE0200E436ED890E3
:100850003736383639363A363F3640364136423604
:100860003E50425C08E13D50415C05E13C50405C3B
:1008700002E13B503F5C0FE33B503F5E3C50D8A051
:100880003C3C405E3D50D8A03D3C415E3E50D8A02F
:100890003E3C425ED8800036013602360336432E97
:1008A000D6D73FC0EFFF40C0ECFF41C0ECFF42C0D5
:1008B000ECFF1200E9502F6E2E50316E19E02DC062
:1008C0003AF02CC039F02BC038F02AC037F03E6A1D
:1008D0003D6A200E3C6E820E3B6E7ADD03C02DF029
:1008E00002C02CF001C02BF000C02AF0312EE7D757
:1008F0002DC03AF02CC039F02BC038F02AC037F0A8
:1009000072D703C02DF002C02CF001C02BF000C044
:100910002AF02DAE0DD02F062F8A2A1E2B1E2C1E3C
:100920002D1E2A2AD8B42B2AD8B42C2AD8B42D2A82
:100930003B0E366E9A0E356ECA0E346E336A0A0E50
:10094000316E2E50D8B42F2AD882EA6A2A0EE96E68
:100950002DC03AF02CC039F02BC038F02AC037F047
:1009600036C03EF035C03DF034C03CF033C03BF003
:100970005ADF015000520FE12E28315C0CE02F505D
:100980000CE00F0B315C01E053E22FBE51D02FBCC5
:1009900004D0200E42D0200E2F162FAA13D02F9A4B
:1009A0002E50D8A42F0600502F6E166AF2BE168E57
:1009B000F29E2D0E466ECAEC00F016BEF28E2F503F
:1009C000006E2F6A2E50315C11E100502F6E166AB6
:1009D000F2BE168EF29E2E0E466ECAEC00F016BEC9
:1009E000F28E2F50006E200E2F16000E300E2FAA02
:1009F00014D02F9A2E50D8A42F0600502F6E166AAE
:100A0000F2BE168EF29E2D0E466ECAEC00F016BE99
:100A1000F28E2F50006E2F6A300E0026166AF2BE3C
:100A2000168EF29E00C046F0CAEC00F016BEF28EA2
:100A3000D89236C03AF035C039F034C038F033C0FF
:100A400037F03E6A3D6A3C6A0A0E3B6EECDE03C03C
:100A500036F002C035F001C034F000C033F0312E62
:100A600073D7120029B45ED0166AF2BE168EF29EBB
:100A7000010E476E486EA5EC00F016BEF28E166AA7
:100A8000F2BE168EF29E200E466ECAEC00F016BE26
:100A9000F28E166AF2BE168EF29E200E466ECAECDA
:100AA00000F016BEF28E25C02AF0010E2B6E56DE27
:100AB000166AF2BE168EF29E3A0E466ECAEC00F030
:100AC00016BEF28E24C02AF0010E2B6E47DE166A87
:100AD000F2BE168EF29E200E466ECAEC00F016BED6
:100AE000F28E166AF2BE168EF29E200E466ECAEC8A
:100AF00000F016BEF28E890EE96E1EC02DF01DC0EC
:100B00002CF01CC02BF01BC02AF0020E2E6ED2DE81
:100B1000166AF2BE168EF29E410E466ECAEC00F0C8
:100B200016BEF28E29B65FD0166AF2BE168EF29EFF
:100B3000010E476E020E486EA5EC00F016BEF28E56
:100B4000166AF2BE168EF29E200E466ECAEC00F0B9
:100B500016BEF28E166AF2BE168EF29E200E466EFB
:100B6000CAEC00F016BEF28E28C02AF0010E2B6EE1
:100B7000F5DD166AF2BE168EF29E3A0E466ECAEC8D
:100B800000F016BEF28E27C02AF0010E2B6EE6DDB5
:100B9000166AF2BE168EF29E200E466ECAEC00F069
:100BA00016BEF28E166AF2BE168EF29E200E466EAB
:100BB000CAEC00F016BEF28E890EE96E22C02DF04E
:100BC00021C02CF020C02BF01FC02AF0020E2E6E88
:100BD00071DE166AF2BE168EF29E410E466ECAECA9
:100BE00000F016BEF28E32EF06F02BC032F02F501E
:100BF000321A32AE05D0D894D8902BBED8802FD0E0
:100C00002BC032F02EC033F02A50335E06E032AEF5
:100C100026D0D850010AD86E22D02FC033F02B50E6
:100C2000335E06E032AE1BD0D850010AD86E17D022
:100C300030C033F02C50335E06E032AE10D0D850C6
:100C4000010AD86E0CD031C033F02D50335E06E06F
:100C500032AE05D0D850010AD86E01D0D89012001B
:100C6000DDD400D729A02AD02D6A2C6A400E2B6E25
:100C70007F0E2A6E1EC031F01DC030F01CC02FF058
:100C80001BC02EF0B2DF01E219E1809C2984166AB4
:100C9000F2BE168EF29E010E476E486EA5EC00F075
:100CA00016BEF28EB60EF66E020EF76E166AF2BE23
:100CB000168EF29EF2EC00F016BEF28E29A22BD018
:100CC0002D6A2C6A400E2B6E7F0E2A6E22C031F0E8
:100CD00021C030F020C02FF01FC02EF086DF01E2CF
:100CE0001AE1809E2986166AF2BE168EF29E010EC9
:100CF000476E020E486EA5EC00F016BEF28EC60ED0
:100D0000F66E020EF76E166AF2BE168EF29EF2ECC8
:100D100000F016BEF28EC8EF06F0F86AD09E078E7D
:100D2000620ED36ED3501E6A1D6A1C6A1B6A226A49
:100D3000216A206A1F6A236A246A256A266A276A4A
:100D4000286A2990299229942996C29CC29EC15052
:100D5000800B7F09C16E3F0E926E000E936E936AF8
:100D60008A6AE00EF212C70ED56EC29CC29EC150B6
:100D7000800B7C09C16EC050C00BC06EC08EC2809B
:100D8000D76A3A0ED66E6AEF01F0808E808C68D7F3
:100D900080B812D080B80BD0166AF2BE168EF29EC2
:100DA000C80E476EB6EC00F016BEF28EF3D729B02F
:100DB00002D0298001D0299080BA12D080BA0BD0FD
:100DC000166AF2BE168EF29EC80E476EB6EC00F0A2
:100DD00016BEF28EF3D729B202D0298201D0299211
:040DE000D6D703005F
:020000040030CA
:0E00000000C80C1E00008100004003E0034019
:00000001FF
;PIC18F1220
;CRC=7ED8  CREATED="19-abr-18 16:21"
